{
	"Solidity/Lec7/functions1.sol": {
		"Function": {
			"abi": [
				{
					"inputs": [],
					"name": "AssignValues",
					"outputs": [
						{
							"internalType": "uint256",
							"name": "x",
							"type": "uint256"
						},
						{
							"internalType": "bool",
							"name": "b",
							"type": "bool"
						},
						{
							"internalType": "int256",
							"name": "y",
							"type": "int256"
						}
					],
					"stateMutability": "pure",
					"type": "function"
				},
				{
					"inputs": [],
					"name": "destructuring",
					"outputs": [
						{
							"internalType": "uint256",
							"name": "",
							"type": "uint256"
						},
						{
							"internalType": "bool",
							"name": "",
							"type": "bool"
						},
						{
							"internalType": "uint256",
							"name": "",
							"type": "uint256"
						},
						{
							"internalType": "uint256",
							"name": "",
							"type": "uint256"
						},
						{
							"internalType": "uint256",
							"name": "",
							"type": "uint256"
						}
					],
					"stateMutability": "pure",
					"type": "function"
				},
				{
					"inputs": [],
					"name": "returnMultiple",
					"outputs": [
						{
							"internalType": "uint256",
							"name": "",
							"type": "uint256"
						},
						{
							"internalType": "bool",
							"name": "",
							"type": "bool"
						},
						{
							"internalType": "uint256",
							"name": "",
							"type": "uint256"
						}
					],
					"stateMutability": "pure",
					"type": "function"
				},
				{
					"inputs": [],
					"name": "returnNamed",
					"outputs": [
						{
							"internalType": "uint256",
							"name": "x",
							"type": "uint256"
						},
						{
							"internalType": "bool",
							"name": "b",
							"type": "bool"
						},
						{
							"internalType": "int256",
							"name": "y",
							"type": "int256"
						}
					],
					"stateMutability": "pure",
					"type": "function"
				}
			],
			"devdoc": {
				"kind": "dev",
				"methods": {},
				"version": 1
			},
			"evm": {
				"assembly": "    /* \"Solidity/Lec7/functions1.sol\":55:779  contract Function{... */\n  mstore(0x40, 0x80)\n  callvalue\n  dup1\n  iszero\n  tag_1\n  jumpi\n  0x00\n  dup1\n  revert\ntag_1:\n  pop\n  dataSize(sub_0)\n  dup1\n  dataOffset(sub_0)\n  0x00\n  codecopy\n  0x00\n  return\nstop\n\nsub_0: assembly {\n        /* \"Solidity/Lec7/functions1.sol\":55:779  contract Function{... */\n      mstore(0x40, 0x80)\n      callvalue\n      dup1\n      iszero\n      tag_1\n      jumpi\n      0x00\n      dup1\n      revert\n    tag_1:\n      pop\n      jumpi(tag_2, lt(calldatasize, 0x04))\n      shr(0xe0, calldataload(0x00))\n      dup1\n      0x3dece511\n      eq\n      tag_3\n      jumpi\n      dup1\n      0x7297237f\n      eq\n      tag_4\n      jumpi\n      dup1\n      0xe61e4008\n      eq\n      tag_5\n      jumpi\n      dup1\n      0xeb0faae8\n      eq\n      tag_6\n      jumpi\n    tag_2:\n      0x00\n      dup1\n      revert\n        /* \"Solidity/Lec7/functions1.sol\":223:323  function returnNamed() public pure returns(uint x,bool b, int y) ... */\n    tag_3:\n      tag_7\n      tag_8\n      jump\t// in\n    tag_7:\n      mload(0x40)\n      tag_9\n      swap4\n      swap3\n      swap2\n      swap1\n      tag_10\n      jump\t// in\n    tag_9:\n      mload(0x40)\n      dup1\n      swap2\n      sub\n      swap1\n      return\n        /* \"Solidity/Lec7/functions1.sol\":477:678  function destructuring() public pure returns (uint , bool, uint ,uint, uint){... */\n    tag_4:\n      tag_11\n      tag_12\n      jump\t// in\n    tag_11:\n      mload(0x40)\n      tag_13\n      swap6\n      swap5\n      swap4\n      swap3\n      swap2\n      swap1\n      tag_14\n      jump\t// in\n    tag_13:\n      mload(0x40)\n      dup1\n      swap2\n      sub\n      swap1\n      return\n        /* \"Solidity/Lec7/functions1.sol\":119:217  function returnMultiple() public pure returns(uint, bool, uint){... */\n    tag_5:\n      tag_15\n      tag_16\n      jump\t// in\n    tag_15:\n      mload(0x40)\n      tag_17\n      swap4\n      swap3\n      swap2\n      swap1\n      tag_18\n      jump\t// in\n    tag_17:\n      mload(0x40)\n      dup1\n      swap2\n      sub\n      swap1\n      return\n        /* \"Solidity/Lec7/functions1.sol\":328:472  function AssignValues() public pure returns(uint x, bool b, int y) {... */\n    tag_6:\n      tag_19\n      tag_20\n      jump\t// in\n    tag_19:\n      mload(0x40)\n      tag_21\n      swap4\n      swap3\n      swap2\n      swap1\n      tag_10\n      jump\t// in\n    tag_21:\n      mload(0x40)\n      dup1\n      swap2\n      sub\n      swap1\n      return\n        /* \"Solidity/Lec7/functions1.sol\":223:323  function returnNamed() public pure returns(uint x,bool b, int y) ... */\n    tag_8:\n        /* \"Solidity/Lec7/functions1.sol\":266:272  uint x */\n      0x00\n        /* \"Solidity/Lec7/functions1.sol\":273:279  bool b */\n      dup1\n        /* \"Solidity/Lec7/functions1.sol\":281:286  int y */\n      0x00\n        /* \"Solidity/Lec7/functions1.sol\":223:323  function returnNamed() public pure returns(uint x,bool b, int y) ... */\n      swap1\n      swap2\n      swap3\n      jump\t// out\n        /* \"Solidity/Lec7/functions1.sol\":477:678  function destructuring() public pure returns (uint , bool, uint ,uint, uint){... */\n    tag_12:\n        /* \"Solidity/Lec7/functions1.sol\":523:527  uint */\n      0x00\n        /* \"Solidity/Lec7/functions1.sol\":530:534  bool */\n      dup1\n        /* \"Solidity/Lec7/functions1.sol\":536:540  uint */\n      0x00\n        /* \"Solidity/Lec7/functions1.sol\":542:546  uint */\n      dup1\n        /* \"Solidity/Lec7/functions1.sol\":548:552  uint */\n      0x00\n        /* \"Solidity/Lec7/functions1.sol\":564:570  uint i */\n      dup1\n        /* \"Solidity/Lec7/functions1.sol\":572:578  bool b */\n      0x00\n        /* \"Solidity/Lec7/functions1.sol\":580:586  uint j */\n      dup1\n        /* \"Solidity/Lec7/functions1.sol\":590:606  returnMultiple() */\n      tag_24\n        /* \"Solidity/Lec7/functions1.sol\":590:604  returnMultiple */\n      tag_16\n        /* \"Solidity/Lec7/functions1.sol\":590:606  returnMultiple() */\n      jump\t// in\n    tag_24:\n        /* \"Solidity/Lec7/functions1.sol\":563:606  (uint i, bool b, uint j) = returnMultiple() */\n      swap3\n      pop\n      swap3\n      pop\n      swap3\n      pop\n        /* \"Solidity/Lec7/functions1.sol\":617:623  uint x */\n      0x00\n        /* \"Solidity/Lec7/functions1.sol\":625:631  uint y */\n      dup1\n        /* \"Solidity/Lec7/functions1.sol\":634:636  10 */\n      0x0a\n        /* \"Solidity/Lec7/functions1.sol\":637:639  15 */\n      0x0f\n        /* \"Solidity/Lec7/functions1.sol\":640:642  20 */\n      0x14\n        /* \"Solidity/Lec7/functions1.sol\":616:643  (uint x,,uint y)=(10,15,20) */\n      swap3\n      pop\n      pop\n      swap2\n      pop\n        /* \"Solidity/Lec7/functions1.sol\":661:662  i */\n      dup5\n        /* \"Solidity/Lec7/functions1.sol\":663:664  b */\n      dup5\n        /* \"Solidity/Lec7/functions1.sol\":665:666  j */\n      dup5\n        /* \"Solidity/Lec7/functions1.sol\":667:668  x */\n      dup5\n        /* \"Solidity/Lec7/functions1.sol\":669:670  y */\n      dup5\n        /* \"Solidity/Lec7/functions1.sol\":653:671  return (i,b,j,x,y) */\n      swap10\n      pop\n      swap10\n      pop\n      swap10\n      pop\n      swap10\n      pop\n      swap10\n      pop\n      pop\n      pop\n      pop\n      pop\n      pop\n        /* \"Solidity/Lec7/functions1.sol\":477:678  function destructuring() public pure returns (uint , bool, uint ,uint, uint){... */\n      swap1\n      swap2\n      swap3\n      swap4\n      swap5\n      jump\t// out\n        /* \"Solidity/Lec7/functions1.sol\":119:217  function returnMultiple() public pure returns(uint, bool, uint){... */\n    tag_16:\n        /* \"Solidity/Lec7/functions1.sol\":165:169  uint */\n      0x00\n        /* \"Solidity/Lec7/functions1.sol\":171:175  bool */\n      dup1\n        /* \"Solidity/Lec7/functions1.sol\":177:181  uint */\n      0x00\n        /* \"Solidity/Lec7/functions1.sol\":200:201  5 */\n      0x05\n        /* \"Solidity/Lec7/functions1.sol\":202:206  true */\n      0x01\n        /* \"Solidity/Lec7/functions1.sol\":207:209  10 */\n      0x0a\n        /* \"Solidity/Lec7/functions1.sol\":192:210  return (5,true,10) */\n      swap3\n      pop\n      swap3\n      pop\n      swap3\n      pop\n        /* \"Solidity/Lec7/functions1.sol\":119:217  function returnMultiple() public pure returns(uint, bool, uint){... */\n      swap1\n      swap2\n      swap3\n      jump\t// out\n        /* \"Solidity/Lec7/functions1.sol\":328:472  function AssignValues() public pure returns(uint x, bool b, int y) {... */\n    tag_20:\n        /* \"Solidity/Lec7/functions1.sol\":372:378  uint x */\n      0x00\n        /* \"Solidity/Lec7/functions1.sol\":380:386  bool b */\n      dup1\n        /* \"Solidity/Lec7/functions1.sol\":388:393  int y */\n      0x00\n        /* \"Solidity/Lec7/functions1.sol\":407:409  30 */\n      0x1e\n        /* \"Solidity/Lec7/functions1.sol\":405:409  x=30 */\n      swap3\n      pop\n        /* \"Solidity/Lec7/functions1.sol\":421:426  false */\n      0x00\n        /* \"Solidity/Lec7/functions1.sol\":419:426  b=false */\n      swap2\n      pop\n        /* \"Solidity/Lec7/functions1.sol\":438:440  20 */\n      0x14\n        /* \"Solidity/Lec7/functions1.sol\":436:440  y=20 */\n      swap1\n      pop\n        /* \"Solidity/Lec7/functions1.sol\":328:472  function AssignValues() public pure returns(uint x, bool b, int y) {... */\n      swap1\n      swap2\n      swap3\n      jump\t// out\n        /* \"#utility.yul\":7:116   */\n    tag_28:\n        /* \"#utility.yul\":88:109   */\n      tag_30\n        /* \"#utility.yul\":103:108   */\n      dup2\n        /* \"#utility.yul\":88:109   */\n      tag_31\n      jump\t// in\n    tag_30:\n        /* \"#utility.yul\":83:86   */\n      dup3\n        /* \"#utility.yul\":76:110   */\n      mstore\n        /* \"#utility.yul\":7:116   */\n      pop\n      pop\n      jump\t// out\n        /* \"#utility.yul\":122:237   */\n    tag_32:\n        /* \"#utility.yul\":207:230   */\n      tag_34\n        /* \"#utility.yul\":224:229   */\n      dup2\n        /* \"#utility.yul\":207:230   */\n      tag_35\n      jump\t// in\n    tag_34:\n        /* \"#utility.yul\":202:205   */\n      dup3\n        /* \"#utility.yul\":195:231   */\n      mstore\n        /* \"#utility.yul\":122:237   */\n      pop\n      pop\n      jump\t// out\n        /* \"#utility.yul\":243:361   */\n    tag_36:\n        /* \"#utility.yul\":330:354   */\n      tag_38\n        /* \"#utility.yul\":348:353   */\n      dup2\n        /* \"#utility.yul\":330:354   */\n      tag_39\n      jump\t// in\n    tag_38:\n        /* \"#utility.yul\":325:328   */\n      dup3\n        /* \"#utility.yul\":318:355   */\n      mstore\n        /* \"#utility.yul\":243:361   */\n      pop\n      pop\n      jump\t// out\n        /* \"#utility.yul\":367:793   */\n    tag_10:\n        /* \"#utility.yul\":508:512   */\n      0x00\n        /* \"#utility.yul\":546:548   */\n      0x60\n        /* \"#utility.yul\":535:544   */\n      dup3\n        /* \"#utility.yul\":531:549   */\n      add\n        /* \"#utility.yul\":523:549   */\n      swap1\n      pop\n        /* \"#utility.yul\":559:630   */\n      tag_41\n        /* \"#utility.yul\":627:628   */\n      0x00\n        /* \"#utility.yul\":616:625   */\n      dup4\n        /* \"#utility.yul\":612:629   */\n      add\n        /* \"#utility.yul\":603:609   */\n      dup7\n        /* \"#utility.yul\":559:630   */\n      tag_36\n      jump\t// in\n    tag_41:\n        /* \"#utility.yul\":640:706   */\n      tag_42\n        /* \"#utility.yul\":702:704   */\n      0x20\n        /* \"#utility.yul\":691:700   */\n      dup4\n        /* \"#utility.yul\":687:705   */\n      add\n        /* \"#utility.yul\":678:684   */\n      dup6\n        /* \"#utility.yul\":640:706   */\n      tag_28\n      jump\t// in\n    tag_42:\n        /* \"#utility.yul\":716:786   */\n      tag_43\n        /* \"#utility.yul\":782:784   */\n      0x40\n        /* \"#utility.yul\":771:780   */\n      dup4\n        /* \"#utility.yul\":767:785   */\n      add\n        /* \"#utility.yul\":758:764   */\n      dup5\n        /* \"#utility.yul\":716:786   */\n      tag_32\n      jump\t// in\n    tag_43:\n        /* \"#utility.yul\":367:793   */\n      swap5\n      swap4\n      pop\n      pop\n      pop\n      pop\n      jump\t// out\n        /* \"#utility.yul\":799:1229   */\n    tag_18:\n        /* \"#utility.yul\":942:946   */\n      0x00\n        /* \"#utility.yul\":980:982   */\n      0x60\n        /* \"#utility.yul\":969:978   */\n      dup3\n        /* \"#utility.yul\":965:983   */\n      add\n        /* \"#utility.yul\":957:983   */\n      swap1\n      pop\n        /* \"#utility.yul\":993:1064   */\n      tag_45\n        /* \"#utility.yul\":1061:1062   */\n      0x00\n        /* \"#utility.yul\":1050:1059   */\n      dup4\n        /* \"#utility.yul\":1046:1063   */\n      add\n        /* \"#utility.yul\":1037:1043   */\n      dup7\n        /* \"#utility.yul\":993:1064   */\n      tag_36\n      jump\t// in\n    tag_45:\n        /* \"#utility.yul\":1074:1140   */\n      tag_46\n        /* \"#utility.yul\":1136:1138   */\n      0x20\n        /* \"#utility.yul\":1125:1134   */\n      dup4\n        /* \"#utility.yul\":1121:1139   */\n      add\n        /* \"#utility.yul\":1112:1118   */\n      dup6\n        /* \"#utility.yul\":1074:1140   */\n      tag_28\n      jump\t// in\n    tag_46:\n        /* \"#utility.yul\":1150:1222   */\n      tag_47\n        /* \"#utility.yul\":1218:1220   */\n      0x40\n        /* \"#utility.yul\":1207:1216   */\n      dup4\n        /* \"#utility.yul\":1203:1221   */\n      add\n        /* \"#utility.yul\":1194:1200   */\n      dup5\n        /* \"#utility.yul\":1150:1222   */\n      tag_36\n      jump\t// in\n    tag_47:\n        /* \"#utility.yul\":799:1229   */\n      swap5\n      swap4\n      pop\n      pop\n      pop\n      pop\n      jump\t// out\n        /* \"#utility.yul\":1235:1887   */\n    tag_14:\n        /* \"#utility.yul\":1434:1438   */\n      0x00\n        /* \"#utility.yul\":1472:1475   */\n      0xa0\n        /* \"#utility.yul\":1461:1470   */\n      dup3\n        /* \"#utility.yul\":1457:1476   */\n      add\n        /* \"#utility.yul\":1449:1476   */\n      swap1\n      pop\n        /* \"#utility.yul\":1486:1557   */\n      tag_49\n        /* \"#utility.yul\":1554:1555   */\n      0x00\n        /* \"#utility.yul\":1543:1552   */\n      dup4\n        /* \"#utility.yul\":1539:1556   */\n      add\n        /* \"#utility.yul\":1530:1536   */\n      dup9\n        /* \"#utility.yul\":1486:1557   */\n      tag_36\n      jump\t// in\n    tag_49:\n        /* \"#utility.yul\":1567:1633   */\n      tag_50\n        /* \"#utility.yul\":1629:1631   */\n      0x20\n        /* \"#utility.yul\":1618:1627   */\n      dup4\n        /* \"#utility.yul\":1614:1632   */\n      add\n        /* \"#utility.yul\":1605:1611   */\n      dup8\n        /* \"#utility.yul\":1567:1633   */\n      tag_28\n      jump\t// in\n    tag_50:\n        /* \"#utility.yul\":1643:1715   */\n      tag_51\n        /* \"#utility.yul\":1711:1713   */\n      0x40\n        /* \"#utility.yul\":1700:1709   */\n      dup4\n        /* \"#utility.yul\":1696:1714   */\n      add\n        /* \"#utility.yul\":1687:1693   */\n      dup7\n        /* \"#utility.yul\":1643:1715   */\n      tag_36\n      jump\t// in\n    tag_51:\n        /* \"#utility.yul\":1725:1797   */\n      tag_52\n        /* \"#utility.yul\":1793:1795   */\n      0x60\n        /* \"#utility.yul\":1782:1791   */\n      dup4\n        /* \"#utility.yul\":1778:1796   */\n      add\n        /* \"#utility.yul\":1769:1775   */\n      dup6\n        /* \"#utility.yul\":1725:1797   */\n      tag_36\n      jump\t// in\n    tag_52:\n        /* \"#utility.yul\":1807:1880   */\n      tag_53\n        /* \"#utility.yul\":1875:1878   */\n      0x80\n        /* \"#utility.yul\":1864:1873   */\n      dup4\n        /* \"#utility.yul\":1860:1879   */\n      add\n        /* \"#utility.yul\":1851:1857   */\n      dup5\n        /* \"#utility.yul\":1807:1880   */\n      tag_36\n      jump\t// in\n    tag_53:\n        /* \"#utility.yul\":1235:1887   */\n      swap7\n      swap6\n      pop\n      pop\n      pop\n      pop\n      pop\n      pop\n      jump\t// out\n        /* \"#utility.yul\":1893:1983   */\n    tag_31:\n        /* \"#utility.yul\":1927:1934   */\n      0x00\n        /* \"#utility.yul\":1970:1975   */\n      dup2\n        /* \"#utility.yul\":1963:1976   */\n      iszero\n        /* \"#utility.yul\":1956:1977   */\n      iszero\n        /* \"#utility.yul\":1945:1977   */\n      swap1\n      pop\n        /* \"#utility.yul\":1893:1983   */\n      swap2\n      swap1\n      pop\n      jump\t// out\n        /* \"#utility.yul\":1989:2065   */\n    tag_35:\n        /* \"#utility.yul\":2025:2032   */\n      0x00\n        /* \"#utility.yul\":2054:2059   */\n      dup2\n        /* \"#utility.yul\":2043:2059   */\n      swap1\n      pop\n        /* \"#utility.yul\":1989:2065   */\n      swap2\n      swap1\n      pop\n      jump\t// out\n        /* \"#utility.yul\":2071:2148   */\n    tag_39:\n        /* \"#utility.yul\":2108:2115   */\n      0x00\n        /* \"#utility.yul\":2137:2142   */\n      dup2\n        /* \"#utility.yul\":2126:2142   */\n      swap1\n      pop\n        /* \"#utility.yul\":2071:2148   */\n      swap2\n      swap1\n      pop\n      jump\t// out\n\n    auxdata: 0xa26469706673582212200707e2a19fed775be79afe6958fad5e644a83241c78c125a0318b7c42b6e965464736f6c63430008070033\n}\n",
				"bytecode": {
					"linkReferences": {},
					"object": "608060405234801561001057600080fd5b50610290806100206000396000f3fe608060405234801561001057600080fd5b506004361061004c5760003560e01c80633dece511146100515780637297237f14610071578063e61e400814610093578063eb0faae8146100b3575b600080fd5b6100596100d3565b60405161006893929190610179565b60405180910390f35b6100796100dd565b60405161008a9594939291906101e7565b60405180910390f35b61009b610120565b6040516100aa939291906101b0565b60405180910390f35b6100bb610136565b6040516100ca93929190610179565b60405180910390f35b6000806000909192565b6000806000806000806000806100f1610120565b925092509250600080600a600f6014925050915084848484849950995099509950995050505050509091929394565b600080600060056001600a925092509250909192565b6000806000601e92506000915060149050909192565b6101558161023a565b82525050565b61016481610246565b82525050565b61017381610250565b82525050565b600060608201905061018e600083018661016a565b61019b602083018561014c565b6101a8604083018461015b565b949350505050565b60006060820190506101c5600083018661016a565b6101d2602083018561014c565b6101df604083018461016a565b949350505050565b600060a0820190506101fc600083018861016a565b610209602083018761014c565b610216604083018661016a565b610223606083018561016a565b610230608083018461016a565b9695505050505050565b60008115159050919050565b6000819050919050565b600081905091905056fea26469706673582212200707e2a19fed775be79afe6958fad5e644a83241c78c125a0318b7c42b6e965464736f6c63430008070033",
					"opcodes": "PUSH1 0x80 PUSH1 0x40 MSTORE CALLVALUE DUP1 ISZERO PUSH2 0x10 JUMPI PUSH1 0x0 DUP1 REVERT JUMPDEST POP PUSH2 0x290 DUP1 PUSH2 0x20 PUSH1 0x0 CODECOPY PUSH1 0x0 RETURN INVALID PUSH1 0x80 PUSH1 0x40 MSTORE CALLVALUE DUP1 ISZERO PUSH2 0x10 JUMPI PUSH1 0x0 DUP1 REVERT JUMPDEST POP PUSH1 0x4 CALLDATASIZE LT PUSH2 0x4C JUMPI PUSH1 0x0 CALLDATALOAD PUSH1 0xE0 SHR DUP1 PUSH4 0x3DECE511 EQ PUSH2 0x51 JUMPI DUP1 PUSH4 0x7297237F EQ PUSH2 0x71 JUMPI DUP1 PUSH4 0xE61E4008 EQ PUSH2 0x93 JUMPI DUP1 PUSH4 0xEB0FAAE8 EQ PUSH2 0xB3 JUMPI JUMPDEST PUSH1 0x0 DUP1 REVERT JUMPDEST PUSH2 0x59 PUSH2 0xD3 JUMP JUMPDEST PUSH1 0x40 MLOAD PUSH2 0x68 SWAP4 SWAP3 SWAP2 SWAP1 PUSH2 0x179 JUMP JUMPDEST PUSH1 0x40 MLOAD DUP1 SWAP2 SUB SWAP1 RETURN JUMPDEST PUSH2 0x79 PUSH2 0xDD JUMP JUMPDEST PUSH1 0x40 MLOAD PUSH2 0x8A SWAP6 SWAP5 SWAP4 SWAP3 SWAP2 SWAP1 PUSH2 0x1E7 JUMP JUMPDEST PUSH1 0x40 MLOAD DUP1 SWAP2 SUB SWAP1 RETURN JUMPDEST PUSH2 0x9B PUSH2 0x120 JUMP JUMPDEST PUSH1 0x40 MLOAD PUSH2 0xAA SWAP4 SWAP3 SWAP2 SWAP1 PUSH2 0x1B0 JUMP JUMPDEST PUSH1 0x40 MLOAD DUP1 SWAP2 SUB SWAP1 RETURN JUMPDEST PUSH2 0xBB PUSH2 0x136 JUMP JUMPDEST PUSH1 0x40 MLOAD PUSH2 0xCA SWAP4 SWAP3 SWAP2 SWAP1 PUSH2 0x179 JUMP JUMPDEST PUSH1 0x40 MLOAD DUP1 SWAP2 SUB SWAP1 RETURN JUMPDEST PUSH1 0x0 DUP1 PUSH1 0x0 SWAP1 SWAP2 SWAP3 JUMP JUMPDEST PUSH1 0x0 DUP1 PUSH1 0x0 DUP1 PUSH1 0x0 DUP1 PUSH1 0x0 DUP1 PUSH2 0xF1 PUSH2 0x120 JUMP JUMPDEST SWAP3 POP SWAP3 POP SWAP3 POP PUSH1 0x0 DUP1 PUSH1 0xA PUSH1 0xF PUSH1 0x14 SWAP3 POP POP SWAP2 POP DUP5 DUP5 DUP5 DUP5 DUP5 SWAP10 POP SWAP10 POP SWAP10 POP SWAP10 POP SWAP10 POP POP POP POP POP POP SWAP1 SWAP2 SWAP3 SWAP4 SWAP5 JUMP JUMPDEST PUSH1 0x0 DUP1 PUSH1 0x0 PUSH1 0x5 PUSH1 0x1 PUSH1 0xA SWAP3 POP SWAP3 POP SWAP3 POP SWAP1 SWAP2 SWAP3 JUMP JUMPDEST PUSH1 0x0 DUP1 PUSH1 0x0 PUSH1 0x1E SWAP3 POP PUSH1 0x0 SWAP2 POP PUSH1 0x14 SWAP1 POP SWAP1 SWAP2 SWAP3 JUMP JUMPDEST PUSH2 0x155 DUP2 PUSH2 0x23A JUMP JUMPDEST DUP3 MSTORE POP POP JUMP JUMPDEST PUSH2 0x164 DUP2 PUSH2 0x246 JUMP JUMPDEST DUP3 MSTORE POP POP JUMP JUMPDEST PUSH2 0x173 DUP2 PUSH2 0x250 JUMP JUMPDEST DUP3 MSTORE POP POP JUMP JUMPDEST PUSH1 0x0 PUSH1 0x60 DUP3 ADD SWAP1 POP PUSH2 0x18E PUSH1 0x0 DUP4 ADD DUP7 PUSH2 0x16A JUMP JUMPDEST PUSH2 0x19B PUSH1 0x20 DUP4 ADD DUP6 PUSH2 0x14C JUMP JUMPDEST PUSH2 0x1A8 PUSH1 0x40 DUP4 ADD DUP5 PUSH2 0x15B JUMP JUMPDEST SWAP5 SWAP4 POP POP POP POP JUMP JUMPDEST PUSH1 0x0 PUSH1 0x60 DUP3 ADD SWAP1 POP PUSH2 0x1C5 PUSH1 0x0 DUP4 ADD DUP7 PUSH2 0x16A JUMP JUMPDEST PUSH2 0x1D2 PUSH1 0x20 DUP4 ADD DUP6 PUSH2 0x14C JUMP JUMPDEST PUSH2 0x1DF PUSH1 0x40 DUP4 ADD DUP5 PUSH2 0x16A JUMP JUMPDEST SWAP5 SWAP4 POP POP POP POP JUMP JUMPDEST PUSH1 0x0 PUSH1 0xA0 DUP3 ADD SWAP1 POP PUSH2 0x1FC PUSH1 0x0 DUP4 ADD DUP9 PUSH2 0x16A JUMP JUMPDEST PUSH2 0x209 PUSH1 0x20 DUP4 ADD DUP8 PUSH2 0x14C JUMP JUMPDEST PUSH2 0x216 PUSH1 0x40 DUP4 ADD DUP7 PUSH2 0x16A JUMP JUMPDEST PUSH2 0x223 PUSH1 0x60 DUP4 ADD DUP6 PUSH2 0x16A JUMP JUMPDEST PUSH2 0x230 PUSH1 0x80 DUP4 ADD DUP5 PUSH2 0x16A JUMP JUMPDEST SWAP7 SWAP6 POP POP POP POP POP POP JUMP JUMPDEST PUSH1 0x0 DUP2 ISZERO ISZERO SWAP1 POP SWAP2 SWAP1 POP JUMP JUMPDEST PUSH1 0x0 DUP2 SWAP1 POP SWAP2 SWAP1 POP JUMP JUMPDEST PUSH1 0x0 DUP2 SWAP1 POP SWAP2 SWAP1 POP JUMP INVALID LOG2 PUSH5 0x6970667358 0x22 SLT KECCAK256 SMOD SMOD 0xE2 LOG1 SWAP16 0xED PUSH24 0x5BE79AFE6958FAD5E644A83241C78C125A0318B7C42B6E96 SLOAD PUSH5 0x736F6C6343 STOP ADDMOD SMOD STOP CALLER "
				},
				"gasEstimates": {
					"creation": {
						"codeDepositCost": "131200",
						"executionCost": "177",
						"totalCost": "131377"
					},
					"external": {
						"AssignValues()": "615",
						"destructuring()": "infinite",
						"returnMultiple()": "infinite",
						"returnNamed()": "525"
					}
				},
				"methodIdentifiers": {
					"AssignValues()": "eb0faae8",
					"destructuring()": "7297237f",
					"returnMultiple()": "e61e4008",
					"returnNamed()": "3dece511"
				}
			},
			"storageLayout": {
				"storage": [],
				"types": null
			},
			"userdoc": {
				"kind": "user",
				"methods": {},
				"version": 1
			}
		}
	}
}