{
	"data": {
		"bytecode": {
			"linkReferences": {},
			"object": "608060405234801561001057600080fd5b50610271806100206000396000f3fe608060405234801561001057600080fd5b50600436106100365760003560e01c8063f0fbda461461003b578063f24fc9031461006b575b600080fd5b61005560048036038101906100509190610170565b61009b565b60405161006291906101d9565b60405180910390f35b6100856004803603810190610080919061019d565b610116565b60405161009291906101d9565b60405180910390f35b6000808212156100ae5760059050610111565b600082121580156100c05750600a8213155b156100ce5760019050610111565b600a821380156100df575060148213155b156100ed5760029050610111565b6014821380156100fe5750601e8213155b1561010c5760039050610111565b600490505b919050565b6000600a82111561012a5760009050610141565b600a82101561013c5760019050610141565b600290505b919050565b6000813590506101558161020d565b92915050565b60008135905061016a81610224565b92915050565b60006020828403121561018657610185610208565b5b600061019484828501610146565b91505092915050565b6000602082840312156101b3576101b2610208565b5b60006101c18482850161015b565b91505092915050565b6101d3816101fe565b82525050565b60006020820190506101ee60008301846101ca565b92915050565b6000819050919050565b6000819050919050565b600080fd5b610216816101f4565b811461022157600080fd5b50565b61022d816101fe565b811461023857600080fd5b5056fea2646970667358221220b47c63733f3b51ad7e2a7ff7db629250a5d8cbd3744bc54f43f6e50a15c5432364736f6c63430008060033",
			"opcodes": "PUSH1 0x80 PUSH1 0x40 MSTORE CALLVALUE DUP1 ISZERO PUSH2 0x10 JUMPI PUSH1 0x0 DUP1 REVERT JUMPDEST POP PUSH2 0x271 DUP1 PUSH2 0x20 PUSH1 0x0 CODECOPY PUSH1 0x0 RETURN INVALID PUSH1 0x80 PUSH1 0x40 MSTORE CALLVALUE DUP1 ISZERO PUSH2 0x10 JUMPI PUSH1 0x0 DUP1 REVERT JUMPDEST POP PUSH1 0x4 CALLDATASIZE LT PUSH2 0x36 JUMPI PUSH1 0x0 CALLDATALOAD PUSH1 0xE0 SHR DUP1 PUSH4 0xF0FBDA46 EQ PUSH2 0x3B JUMPI DUP1 PUSH4 0xF24FC903 EQ PUSH2 0x6B JUMPI JUMPDEST PUSH1 0x0 DUP1 REVERT JUMPDEST PUSH2 0x55 PUSH1 0x4 DUP1 CALLDATASIZE SUB DUP2 ADD SWAP1 PUSH2 0x50 SWAP2 SWAP1 PUSH2 0x170 JUMP JUMPDEST PUSH2 0x9B JUMP JUMPDEST PUSH1 0x40 MLOAD PUSH2 0x62 SWAP2 SWAP1 PUSH2 0x1D9 JUMP JUMPDEST PUSH1 0x40 MLOAD DUP1 SWAP2 SUB SWAP1 RETURN JUMPDEST PUSH2 0x85 PUSH1 0x4 DUP1 CALLDATASIZE SUB DUP2 ADD SWAP1 PUSH2 0x80 SWAP2 SWAP1 PUSH2 0x19D JUMP JUMPDEST PUSH2 0x116 JUMP JUMPDEST PUSH1 0x40 MLOAD PUSH2 0x92 SWAP2 SWAP1 PUSH2 0x1D9 JUMP JUMPDEST PUSH1 0x40 MLOAD DUP1 SWAP2 SUB SWAP1 RETURN JUMPDEST PUSH1 0x0 DUP1 DUP3 SLT ISZERO PUSH2 0xAE JUMPI PUSH1 0x5 SWAP1 POP PUSH2 0x111 JUMP JUMPDEST PUSH1 0x0 DUP3 SLT ISZERO DUP1 ISZERO PUSH2 0xC0 JUMPI POP PUSH1 0xA DUP3 SGT ISZERO JUMPDEST ISZERO PUSH2 0xCE JUMPI PUSH1 0x1 SWAP1 POP PUSH2 0x111 JUMP JUMPDEST PUSH1 0xA DUP3 SGT DUP1 ISZERO PUSH2 0xDF JUMPI POP PUSH1 0x14 DUP3 SGT ISZERO JUMPDEST ISZERO PUSH2 0xED JUMPI PUSH1 0x2 SWAP1 POP PUSH2 0x111 JUMP JUMPDEST PUSH1 0x14 DUP3 SGT DUP1 ISZERO PUSH2 0xFE JUMPI POP PUSH1 0x1E DUP3 SGT ISZERO JUMPDEST ISZERO PUSH2 0x10C JUMPI PUSH1 0x3 SWAP1 POP PUSH2 0x111 JUMP JUMPDEST PUSH1 0x4 SWAP1 POP JUMPDEST SWAP2 SWAP1 POP JUMP JUMPDEST PUSH1 0x0 PUSH1 0xA DUP3 GT ISZERO PUSH2 0x12A JUMPI PUSH1 0x0 SWAP1 POP PUSH2 0x141 JUMP JUMPDEST PUSH1 0xA DUP3 LT ISZERO PUSH2 0x13C JUMPI PUSH1 0x1 SWAP1 POP PUSH2 0x141 JUMP JUMPDEST PUSH1 0x2 SWAP1 POP JUMPDEST SWAP2 SWAP1 POP JUMP JUMPDEST PUSH1 0x0 DUP2 CALLDATALOAD SWAP1 POP PUSH2 0x155 DUP2 PUSH2 0x20D JUMP JUMPDEST SWAP3 SWAP2 POP POP JUMP JUMPDEST PUSH1 0x0 DUP2 CALLDATALOAD SWAP1 POP PUSH2 0x16A DUP2 PUSH2 0x224 JUMP JUMPDEST SWAP3 SWAP2 POP POP JUMP JUMPDEST PUSH1 0x0 PUSH1 0x20 DUP3 DUP5 SUB SLT ISZERO PUSH2 0x186 JUMPI PUSH2 0x185 PUSH2 0x208 JUMP JUMPDEST JUMPDEST PUSH1 0x0 PUSH2 0x194 DUP5 DUP3 DUP6 ADD PUSH2 0x146 JUMP JUMPDEST SWAP2 POP POP SWAP3 SWAP2 POP POP JUMP JUMPDEST PUSH1 0x0 PUSH1 0x20 DUP3 DUP5 SUB SLT ISZERO PUSH2 0x1B3 JUMPI PUSH2 0x1B2 PUSH2 0x208 JUMP JUMPDEST JUMPDEST PUSH1 0x0 PUSH2 0x1C1 DUP5 DUP3 DUP6 ADD PUSH2 0x15B JUMP JUMPDEST SWAP2 POP POP SWAP3 SWAP2 POP POP JUMP JUMPDEST PUSH2 0x1D3 DUP2 PUSH2 0x1FE JUMP JUMPDEST DUP3 MSTORE POP POP JUMP JUMPDEST PUSH1 0x0 PUSH1 0x20 DUP3 ADD SWAP1 POP PUSH2 0x1EE PUSH1 0x0 DUP4 ADD DUP5 PUSH2 0x1CA JUMP JUMPDEST SWAP3 SWAP2 POP POP JUMP JUMPDEST PUSH1 0x0 DUP2 SWAP1 POP SWAP2 SWAP1 POP JUMP JUMPDEST PUSH1 0x0 DUP2 SWAP1 POP SWAP2 SWAP1 POP JUMP JUMPDEST PUSH1 0x0 DUP1 REVERT JUMPDEST PUSH2 0x216 DUP2 PUSH2 0x1F4 JUMP JUMPDEST DUP2 EQ PUSH2 0x221 JUMPI PUSH1 0x0 DUP1 REVERT JUMPDEST POP JUMP JUMPDEST PUSH2 0x22D DUP2 PUSH2 0x1FE JUMP JUMPDEST DUP2 EQ PUSH2 0x238 JUMPI PUSH1 0x0 DUP1 REVERT JUMPDEST POP JUMP INVALID LOG2 PUSH5 0x6970667358 0x22 SLT KECCAK256 0xB4 PUSH29 0x63733F3B51AD7E2A7FF7DB629250A5D8CBD3744BC54F43F6E50A15C543 0x23 PUSH5 0x736F6C6343 STOP ADDMOD MOD STOP CALLER "
		},
		"gasEstimates": {
			"creation": {
				"codeDepositCost": "125000",
				"executionCost": "171",
				"totalCost": "125171"
			},
			"external": {
				"condition(uint256)": "infinite",
				"condition2(int256)": "800"
			}
		},
		"methodIdentifiers": {
			"condition(uint256)": "f24fc903",
			"condition2(int256)": "f0fbda46"
		}
	},
	"abi": [
		{
			"inputs": [
				{
					"internalType": "uint256",
					"name": "x",
					"type": "uint256"
				}
			],
			"name": "condition",
			"outputs": [
				{
					"internalType": "uint256",
					"name": "",
					"type": "uint256"
				}
			],
			"stateMutability": "pure",
			"type": "function"
		},
		{
			"inputs": [
				{
					"internalType": "int256",
					"name": "x",
					"type": "int256"
				}
			],
			"name": "condition2",
			"outputs": [
				{
					"internalType": "uint256",
					"name": "",
					"type": "uint256"
				}
			],
			"stateMutability": "pure",
			"type": "function"
		}
	]
}