{
	"Solidity/Lec2/contracts/struct.sol": {
		"structure": {
			"abi": [
				{
					"inputs": [],
					"name": "getBookId",
					"outputs": [
						{
							"internalType": "uint256",
							"name": "",
							"type": "uint256"
						}
					],
					"stateMutability": "view",
					"type": "function"
				},
				{
					"inputs": [],
					"name": "setBook",
					"outputs": [],
					"stateMutability": "nonpayable",
					"type": "function"
				}
			],
			"devdoc": {
				"kind": "dev",
				"methods": {},
				"version": 1
			},
			"evm": {
				"assembly": "    /* \"Solidity/Lec2/contracts/struct.sol\":56:476  contract structure{... */\n  mstore(0x40, 0x80)\n  callvalue\n  dup1\n  iszero\n  tag_1\n  jumpi\n  0x00\n  dup1\n  revert\ntag_1:\n  pop\n  dataSize(sub_0)\n  dup1\n  dataOffset(sub_0)\n  0x00\n  codecopy\n  0x00\n  return\nstop\n\nsub_0: assembly {\n        /* \"Solidity/Lec2/contracts/struct.sol\":56:476  contract structure{... */\n      mstore(0x40, 0x80)\n      callvalue\n      dup1\n      iszero\n      tag_1\n      jumpi\n      0x00\n      dup1\n      revert\n    tag_1:\n      pop\n      jumpi(tag_2, lt(calldatasize, 0x04))\n      shr(0xe0, calldataload(0x00))\n      dup1\n      0x7310d33c\n      eq\n      tag_3\n      jumpi\n      dup1\n      0xd629546c\n      eq\n      tag_4\n      jumpi\n    tag_2:\n      0x00\n      dup1\n      revert\n        /* \"Solidity/Lec2/contracts/struct.sol\":386:467  function getBookId() public view returns(uint){... */\n    tag_3:\n      tag_5\n      tag_6\n      jump\t// in\n    tag_5:\n      mload(0x40)\n      tag_7\n      swap2\n      swap1\n      tag_8\n      jump\t// in\n    tag_7:\n      mload(0x40)\n      dup1\n      swap2\n      sub\n      swap1\n      return\n        /* \"Solidity/Lec2/contracts/struct.sol\":286:381  function setBook() public {... */\n    tag_4:\n      tag_9\n      tag_10\n      jump\t// in\n    tag_9:\n      stop\n        /* \"Solidity/Lec2/contracts/struct.sol\":386:467  function getBookId() public view returns(uint){... */\n    tag_6:\n        /* \"Solidity/Lec2/contracts/struct.sol\":427:431  uint */\n      0x00\n        /* \"Solidity/Lec2/contracts/struct.sol\":449:453  book */\n      dup1\n        /* \"Solidity/Lec2/contracts/struct.sol\":449:460  book.bookID */\n      0x02\n      add\n      sload\n        /* \"Solidity/Lec2/contracts/struct.sol\":442:460  return book.bookID */\n      swap1\n      pop\n        /* \"Solidity/Lec2/contracts/struct.sol\":386:467  function getBookId() public view returns(uint){... */\n      swap1\n      jump\t// out\n        /* \"Solidity/Lec2/contracts/struct.sol\":286:381  function setBook() public {... */\n    tag_10:\n        /* \"Solidity/Lec2/contracts/struct.sol\":329:374  Book(\"Blockchain beginners\",\"Ineuron\",4,1000) */\n      mload(0x40)\n      dup1\n      0x80\n      add\n      0x40\n      mstore\n      dup1\n      mload(0x40)\n      dup1\n      0x40\n      add\n      0x40\n      mstore\n      dup1\n      0x14\n      dup2\n      mstore\n      0x20\n      add\n      0x426c6f636b636861696e20626567696e6e657273000000000000000000000000\n      dup2\n      mstore\n      pop\n      dup2\n      mstore\n      0x20\n      add\n      mload(0x40)\n      dup1\n      0x40\n      add\n      0x40\n      mstore\n      dup1\n      0x07\n      dup2\n      mstore\n      0x20\n      add\n      0x496e6575726f6e00000000000000000000000000000000000000000000000000\n      dup2\n      mstore\n      pop\n      dup2\n      mstore\n      0x20\n      add\n        /* \"Solidity/Lec2/contracts/struct.sol\":367:368  4 */\n      0x04\n        /* \"Solidity/Lec2/contracts/struct.sol\":329:374  Book(\"Blockchain beginners\",\"Ineuron\",4,1000) */\n      dup2\n      mstore\n      0x20\n      add\n        /* \"Solidity/Lec2/contracts/struct.sol\":369:373  1000 */\n      0x03e8\n        /* \"Solidity/Lec2/contracts/struct.sol\":329:374  Book(\"Blockchain beginners\",\"Ineuron\",4,1000) */\n      dup2\n      mstore\n      pop\n        /* \"Solidity/Lec2/contracts/struct.sol\":322:326  book */\n      0x00\n        /* \"Solidity/Lec2/contracts/struct.sol\":322:374  book = Book(\"Blockchain beginners\",\"Ineuron\",4,1000) */\n      dup1\n      dup3\n      add\n      mload\n      dup2\n      0x00\n      add\n      swap1\n      dup1\n      mload\n      swap1\n      0x20\n      add\n      swap1\n      tag_13\n      swap3\n      swap2\n      swap1\n      tag_14\n      jump\t// in\n    tag_13:\n      pop\n      0x20\n      dup3\n      add\n      mload\n      dup2\n      0x01\n      add\n      swap1\n      dup1\n      mload\n      swap1\n      0x20\n      add\n      swap1\n      tag_15\n      swap3\n      swap2\n      swap1\n      tag_14\n      jump\t// in\n    tag_15:\n      pop\n      0x40\n      dup3\n      add\n      mload\n      dup2\n      0x02\n      add\n      sstore\n      0x60\n      dup3\n      add\n      mload\n      dup2\n      0x03\n      add\n      sstore\n      swap1\n      pop\n      pop\n        /* \"Solidity/Lec2/contracts/struct.sol\":286:381  function setBook() public {... */\n      jump\t// out\n    tag_14:\n      dup3\n      dup1\n      sload\n      tag_16\n      swap1\n      tag_17\n      jump\t// in\n    tag_16:\n      swap1\n      0x00\n      mstore\n      keccak256(0x00, 0x20)\n      swap1\n      0x1f\n      add\n      0x20\n      swap1\n      div\n      dup2\n      add\n      swap3\n      dup3\n      tag_19\n      jumpi\n      0x00\n      dup6\n      sstore\n      jump(tag_18)\n    tag_19:\n      dup3\n      0x1f\n      lt\n      tag_20\n      jumpi\n      dup1\n      mload\n      not(0xff)\n      and\n      dup4\n      dup1\n      add\n      or\n      dup6\n      sstore\n      jump(tag_18)\n    tag_20:\n      dup3\n      dup1\n      add\n      0x01\n      add\n      dup6\n      sstore\n      dup3\n      iszero\n      tag_18\n      jumpi\n      swap2\n      dup3\n      add\n    tag_21:\n      dup3\n      dup2\n      gt\n      iszero\n      tag_22\n      jumpi\n      dup3\n      mload\n      dup3\n      sstore\n      swap2\n      0x20\n      add\n      swap2\n      swap1\n      0x01\n      add\n      swap1\n      jump(tag_21)\n    tag_22:\n    tag_18:\n      pop\n      swap1\n      pop\n      tag_23\n      swap2\n      swap1\n      tag_24\n      jump\t// in\n    tag_23:\n      pop\n      swap1\n      jump\t// out\n    tag_24:\n    tag_25:\n      dup1\n      dup3\n      gt\n      iszero\n      tag_26\n      jumpi\n      0x00\n      dup2\n      0x00\n      swap1\n      sstore\n      pop\n      0x01\n      add\n      jump(tag_25)\n    tag_26:\n      pop\n      swap1\n      jump\t// out\n        /* \"#utility.yul\":7:125   */\n    tag_28:\n        /* \"#utility.yul\":94:118   */\n      tag_30\n        /* \"#utility.yul\":112:117   */\n      dup2\n        /* \"#utility.yul\":94:118   */\n      tag_31\n      jump\t// in\n    tag_30:\n        /* \"#utility.yul\":89:92   */\n      dup3\n        /* \"#utility.yul\":82:119   */\n      mstore\n        /* \"#utility.yul\":72:125   */\n      pop\n      pop\n      jump\t// out\n        /* \"#utility.yul\":131:353   */\n    tag_8:\n        /* \"#utility.yul\":224:228   */\n      0x00\n        /* \"#utility.yul\":262:264   */\n      0x20\n        /* \"#utility.yul\":251:260   */\n      dup3\n        /* \"#utility.yul\":247:265   */\n      add\n        /* \"#utility.yul\":239:265   */\n      swap1\n      pop\n        /* \"#utility.yul\":275:346   */\n      tag_33\n        /* \"#utility.yul\":343:344   */\n      0x00\n        /* \"#utility.yul\":332:341   */\n      dup4\n        /* \"#utility.yul\":328:345   */\n      add\n        /* \"#utility.yul\":319:325   */\n      dup5\n        /* \"#utility.yul\":275:346   */\n      tag_28\n      jump\t// in\n    tag_33:\n        /* \"#utility.yul\":229:353   */\n      swap3\n      swap2\n      pop\n      pop\n      jump\t// out\n        /* \"#utility.yul\":359:436   */\n    tag_31:\n        /* \"#utility.yul\":396:403   */\n      0x00\n        /* \"#utility.yul\":425:430   */\n      dup2\n        /* \"#utility.yul\":414:430   */\n      swap1\n      pop\n        /* \"#utility.yul\":404:436   */\n      swap2\n      swap1\n      pop\n      jump\t// out\n        /* \"#utility.yul\":442:762   */\n    tag_17:\n        /* \"#utility.yul\":486:492   */\n      0x00\n        /* \"#utility.yul\":523:524   */\n      0x02\n        /* \"#utility.yul\":517:521   */\n      dup3\n        /* \"#utility.yul\":513:525   */\n      div\n        /* \"#utility.yul\":503:525   */\n      swap1\n      pop\n        /* \"#utility.yul\":570:571   */\n      0x01\n        /* \"#utility.yul\":564:568   */\n      dup3\n        /* \"#utility.yul\":560:572   */\n      and\n        /* \"#utility.yul\":591:609   */\n      dup1\n        /* \"#utility.yul\":581:583   */\n      tag_36\n      jumpi\n        /* \"#utility.yul\":647:651   */\n      0x7f\n        /* \"#utility.yul\":639:645   */\n      dup3\n        /* \"#utility.yul\":635:652   */\n      and\n        /* \"#utility.yul\":625:652   */\n      swap2\n      pop\n        /* \"#utility.yul\":581:583   */\n    tag_36:\n        /* \"#utility.yul\":709:711   */\n      0x20\n        /* \"#utility.yul\":701:707   */\n      dup3\n        /* \"#utility.yul\":698:712   */\n      lt\n        /* \"#utility.yul\":678:696   */\n      dup2\n        /* \"#utility.yul\":675:713   */\n      eq\n        /* \"#utility.yul\":672:674   */\n      iszero\n      tag_37\n      jumpi\n        /* \"#utility.yul\":728:746   */\n      tag_38\n      tag_39\n      jump\t// in\n    tag_38:\n        /* \"#utility.yul\":672:674   */\n    tag_37:\n        /* \"#utility.yul\":493:762   */\n      pop\n      swap2\n      swap1\n      pop\n      jump\t// out\n        /* \"#utility.yul\":768:948   */\n    tag_39:\n        /* \"#utility.yul\":816:893   */\n      0x4e487b7100000000000000000000000000000000000000000000000000000000\n        /* \"#utility.yul\":813:814   */\n      0x00\n        /* \"#utility.yul\":806:894   */\n      mstore\n        /* \"#utility.yul\":913:917   */\n      0x22\n        /* \"#utility.yul\":910:911   */\n      0x04\n        /* \"#utility.yul\":903:918   */\n      mstore\n        /* \"#utility.yul\":937:941   */\n      0x24\n        /* \"#utility.yul\":934:935   */\n      0x00\n        /* \"#utility.yul\":927:942   */\n      revert\n\n    auxdata: 0xa264697066735822122098d4ddbb3ff1b3e613d7987824f6b9e8dc213469b692880da2b5f73abac3e02e64736f6c63430008060033\n}\n",
				"bytecode": {
					"linkReferences": {},
					"object": "608060405234801561001057600080fd5b506102bf806100206000396000f3fe608060405234801561001057600080fd5b50600436106100365760003560e01c80637310d33c1461003b578063d629546c14610059575b600080fd5b610043610063565b6040516100509190610203565b60405180910390f35b61006161006f565b005b60008060020154905090565b60405180608001604052806040518060400160405280601481526020017f426c6f636b636861696e20626567696e6e65727300000000000000000000000081525081526020016040518060400160405280600781526020017f496e6575726f6e000000000000000000000000000000000000000000000000008152508152602001600481526020016103e881525060008082015181600001908051906020019061011a929190610151565b506020820151816001019080519060200190610137929190610151565b506040820151816002015560608201518160030155905050565b82805461015d90610228565b90600052602060002090601f01602090048101928261017f57600085556101c6565b82601f1061019857805160ff19168380011785556101c6565b828001600101855582156101c6579182015b828111156101c55782518255916020019190600101906101aa565b5b5090506101d391906101d7565b5090565b5b808211156101f05760008160009055506001016101d8565b5090565b6101fd8161021e565b82525050565b600060208201905061021860008301846101f4565b92915050565b6000819050919050565b6000600282049050600182168061024057607f821691505b602082108114156102545761025361025a565b5b50919050565b7f4e487b7100000000000000000000000000000000000000000000000000000000600052602260045260246000fdfea264697066735822122098d4ddbb3ff1b3e613d7987824f6b9e8dc213469b692880da2b5f73abac3e02e64736f6c63430008060033",
					"opcodes": "PUSH1 0x80 PUSH1 0x40 MSTORE CALLVALUE DUP1 ISZERO PUSH2 0x10 JUMPI PUSH1 0x0 DUP1 REVERT JUMPDEST POP PUSH2 0x2BF DUP1 PUSH2 0x20 PUSH1 0x0 CODECOPY PUSH1 0x0 RETURN INVALID PUSH1 0x80 PUSH1 0x40 MSTORE CALLVALUE DUP1 ISZERO PUSH2 0x10 JUMPI PUSH1 0x0 DUP1 REVERT JUMPDEST POP PUSH1 0x4 CALLDATASIZE LT PUSH2 0x36 JUMPI PUSH1 0x0 CALLDATALOAD PUSH1 0xE0 SHR DUP1 PUSH4 0x7310D33C EQ PUSH2 0x3B JUMPI DUP1 PUSH4 0xD629546C EQ PUSH2 0x59 JUMPI JUMPDEST PUSH1 0x0 DUP1 REVERT JUMPDEST PUSH2 0x43 PUSH2 0x63 JUMP JUMPDEST PUSH1 0x40 MLOAD PUSH2 0x50 SWAP2 SWAP1 PUSH2 0x203 JUMP JUMPDEST PUSH1 0x40 MLOAD DUP1 SWAP2 SUB SWAP1 RETURN JUMPDEST PUSH2 0x61 PUSH2 0x6F JUMP JUMPDEST STOP JUMPDEST PUSH1 0x0 DUP1 PUSH1 0x2 ADD SLOAD SWAP1 POP SWAP1 JUMP JUMPDEST PUSH1 0x40 MLOAD DUP1 PUSH1 0x80 ADD PUSH1 0x40 MSTORE DUP1 PUSH1 0x40 MLOAD DUP1 PUSH1 0x40 ADD PUSH1 0x40 MSTORE DUP1 PUSH1 0x14 DUP2 MSTORE PUSH1 0x20 ADD PUSH32 0x426C6F636B636861696E20626567696E6E657273000000000000000000000000 DUP2 MSTORE POP DUP2 MSTORE PUSH1 0x20 ADD PUSH1 0x40 MLOAD DUP1 PUSH1 0x40 ADD PUSH1 0x40 MSTORE DUP1 PUSH1 0x7 DUP2 MSTORE PUSH1 0x20 ADD PUSH32 0x496E6575726F6E00000000000000000000000000000000000000000000000000 DUP2 MSTORE POP DUP2 MSTORE PUSH1 0x20 ADD PUSH1 0x4 DUP2 MSTORE PUSH1 0x20 ADD PUSH2 0x3E8 DUP2 MSTORE POP PUSH1 0x0 DUP1 DUP3 ADD MLOAD DUP2 PUSH1 0x0 ADD SWAP1 DUP1 MLOAD SWAP1 PUSH1 0x20 ADD SWAP1 PUSH2 0x11A SWAP3 SWAP2 SWAP1 PUSH2 0x151 JUMP JUMPDEST POP PUSH1 0x20 DUP3 ADD MLOAD DUP2 PUSH1 0x1 ADD SWAP1 DUP1 MLOAD SWAP1 PUSH1 0x20 ADD SWAP1 PUSH2 0x137 SWAP3 SWAP2 SWAP1 PUSH2 0x151 JUMP JUMPDEST POP PUSH1 0x40 DUP3 ADD MLOAD DUP2 PUSH1 0x2 ADD SSTORE PUSH1 0x60 DUP3 ADD MLOAD DUP2 PUSH1 0x3 ADD SSTORE SWAP1 POP POP JUMP JUMPDEST DUP3 DUP1 SLOAD PUSH2 0x15D SWAP1 PUSH2 0x228 JUMP JUMPDEST SWAP1 PUSH1 0x0 MSTORE PUSH1 0x20 PUSH1 0x0 KECCAK256 SWAP1 PUSH1 0x1F ADD PUSH1 0x20 SWAP1 DIV DUP2 ADD SWAP3 DUP3 PUSH2 0x17F JUMPI PUSH1 0x0 DUP6 SSTORE PUSH2 0x1C6 JUMP JUMPDEST DUP3 PUSH1 0x1F LT PUSH2 0x198 JUMPI DUP1 MLOAD PUSH1 0xFF NOT AND DUP4 DUP1 ADD OR DUP6 SSTORE PUSH2 0x1C6 JUMP JUMPDEST DUP3 DUP1 ADD PUSH1 0x1 ADD DUP6 SSTORE DUP3 ISZERO PUSH2 0x1C6 JUMPI SWAP2 DUP3 ADD JUMPDEST DUP3 DUP2 GT ISZERO PUSH2 0x1C5 JUMPI DUP3 MLOAD DUP3 SSTORE SWAP2 PUSH1 0x20 ADD SWAP2 SWAP1 PUSH1 0x1 ADD SWAP1 PUSH2 0x1AA JUMP JUMPDEST JUMPDEST POP SWAP1 POP PUSH2 0x1D3 SWAP2 SWAP1 PUSH2 0x1D7 JUMP JUMPDEST POP SWAP1 JUMP JUMPDEST JUMPDEST DUP1 DUP3 GT ISZERO PUSH2 0x1F0 JUMPI PUSH1 0x0 DUP2 PUSH1 0x0 SWAP1 SSTORE POP PUSH1 0x1 ADD PUSH2 0x1D8 JUMP JUMPDEST POP SWAP1 JUMP JUMPDEST PUSH2 0x1FD DUP2 PUSH2 0x21E JUMP JUMPDEST DUP3 MSTORE POP POP JUMP JUMPDEST PUSH1 0x0 PUSH1 0x20 DUP3 ADD SWAP1 POP PUSH2 0x218 PUSH1 0x0 DUP4 ADD DUP5 PUSH2 0x1F4 JUMP JUMPDEST SWAP3 SWAP2 POP POP JUMP JUMPDEST PUSH1 0x0 DUP2 SWAP1 POP SWAP2 SWAP1 POP JUMP JUMPDEST PUSH1 0x0 PUSH1 0x2 DUP3 DIV SWAP1 POP PUSH1 0x1 DUP3 AND DUP1 PUSH2 0x240 JUMPI PUSH1 0x7F DUP3 AND SWAP2 POP JUMPDEST PUSH1 0x20 DUP3 LT DUP2 EQ ISZERO PUSH2 0x254 JUMPI PUSH2 0x253 PUSH2 0x25A JUMP JUMPDEST JUMPDEST POP SWAP2 SWAP1 POP JUMP JUMPDEST PUSH32 0x4E487B7100000000000000000000000000000000000000000000000000000000 PUSH1 0x0 MSTORE PUSH1 0x22 PUSH1 0x4 MSTORE PUSH1 0x24 PUSH1 0x0 REVERT INVALID LOG2 PUSH5 0x6970667358 0x22 SLT KECCAK256 SWAP9 0xD4 0xDD 0xBB EXTCODEHASH CALL 0xB3 0xE6 SGT 0xD7 SWAP9 PUSH25 0x24F6B9E8DC213469B692880DA2B5F73ABAC3E02E64736F6C63 NUMBER STOP ADDMOD MOD STOP CALLER "
				},
				"gasEstimates": {
					"creation": {
						"codeDepositCost": "140600",
						"executionCost": "183",
						"totalCost": "140783"
					},
					"external": {
						"getBookId()": "2421",
						"setBook()": "infinite"
					}
				},
				"methodIdentifiers": {
					"getBookId()": "7310d33c",
					"setBook()": "d629546c"
				}
			},
			"storageLayout": {
				"storage": [
					{
						"astId": 13,
						"contract": "Solidity/Lec2/contracts/struct.sol:structure",
						"label": "book",
						"offset": 0,
						"slot": "0",
						"type": "t_struct(Book)10_storage"
					}
				],
				"types": {
					"t_string_storage": {
						"encoding": "bytes",
						"label": "string",
						"numberOfBytes": "32"
					},
					"t_struct(Book)10_storage": {
						"encoding": "inplace",
						"label": "struct structure.Book",
						"members": [
							{
								"astId": 3,
								"contract": "Solidity/Lec2/contracts/struct.sol:structure",
								"label": "title",
								"offset": 0,
								"slot": "0",
								"type": "t_string_storage"
							},
							{
								"astId": 5,
								"contract": "Solidity/Lec2/contracts/struct.sol:structure",
								"label": "author",
								"offset": 0,
								"slot": "1",
								"type": "t_string_storage"
							},
							{
								"astId": 7,
								"contract": "Solidity/Lec2/contracts/struct.sol:structure",
								"label": "bookID",
								"offset": 0,
								"slot": "2",
								"type": "t_uint256"
							},
							{
								"astId": 9,
								"contract": "Solidity/Lec2/contracts/struct.sol:structure",
								"label": "price",
								"offset": 0,
								"slot": "3",
								"type": "t_uint256"
							}
						],
						"numberOfBytes": "128"
					},
					"t_uint256": {
						"encoding": "inplace",
						"label": "uint256",
						"numberOfBytes": "32"
					}
				}
			},
			"userdoc": {
				"kind": "user",
				"methods": {},
				"version": 1
			}
		}
	}
}