{
	"Solidity/Lec2/contracts/enumerated.sol": {
		"enum1": {
			"abi": [
				{
					"inputs": [],
					"name": "getChoice",
					"outputs": [
						{
							"internalType": "enum enum1.FreshJuice",
							"name": "",
							"type": "uint8"
						}
					],
					"stateMutability": "view",
					"type": "function"
				},
				{
					"inputs": [],
					"name": "getDefault",
					"outputs": [
						{
							"internalType": "uint256",
							"name": "",
							"type": "uint256"
						}
					],
					"stateMutability": "view",
					"type": "function"
				},
				{
					"inputs": [],
					"name": "setLarge",
					"outputs": [],
					"stateMutability": "nonpayable",
					"type": "function"
				},
				{
					"inputs": [],
					"name": "setSmall",
					"outputs": [],
					"stateMutability": "nonpayable",
					"type": "function"
				}
			],
			"devdoc": {
				"kind": "dev",
				"methods": {},
				"version": 1
			},
			"evm": {
				"assembly": "    /* \"Solidity/Lec2/contracts/enumerated.sol\":55:533  contract enum1{... */\n  mstore(0x40, 0x80)\n  callvalue\n  dup1\n  iszero\n  tag_1\n  jumpi\n  0x00\n  dup1\n  revert\ntag_1:\n  pop\n  dataSize(sub_0)\n  dup1\n  dataOffset(sub_0)\n  0x00\n  codecopy\n  0x00\n  return\nstop\n\nsub_0: assembly {\n        /* \"Solidity/Lec2/contracts/enumerated.sol\":55:533  contract enum1{... */\n      mstore(0x40, 0x80)\n      callvalue\n      dup1\n      iszero\n      tag_1\n      jumpi\n      0x00\n      dup1\n      revert\n    tag_1:\n      pop\n      jumpi(tag_2, lt(calldatasize, 0x04))\n      shr(0xe0, calldataload(0x00))\n      dup1\n      0x466858b2\n      eq\n      tag_3\n      jumpi\n      dup1\n      0x67cb61b6\n      eq\n      tag_4\n      jumpi\n      dup1\n      0x694ebe4f\n      eq\n      tag_5\n      jumpi\n      dup1\n      0x91ff2c86\n      eq\n      tag_6\n      jumpi\n    tag_2:\n      0x00\n      dup1\n      revert\n        /* \"Solidity/Lec2/contracts/enumerated.sol\":440:531  function getDefault() public view returns(uint){... */\n    tag_3:\n      tag_7\n      tag_8\n      jump\t// in\n    tag_7:\n      mload(0x40)\n      tag_9\n      swap2\n      swap1\n      tag_10\n      jump\t// in\n    tag_9:\n      mload(0x40)\n      dup1\n      swap2\n      sub\n      swap1\n      return\n        /* \"Solidity/Lec2/contracts/enumerated.sol\":353:435  function getChoice() public view returns(FreshJuice){... */\n    tag_4:\n      tag_11\n      tag_12\n      jump\t// in\n    tag_11:\n      mload(0x40)\n      tag_13\n      swap2\n      swap1\n      tag_14\n      jump\t// in\n    tag_13:\n      mload(0x40)\n      dup1\n      swap2\n      sub\n      swap1\n      return\n        /* \"Solidity/Lec2/contracts/enumerated.sol\":202:272  function setLarge() public {... */\n    tag_5:\n      tag_15\n      tag_16\n      jump\t// in\n    tag_15:\n      stop\n        /* \"Solidity/Lec2/contracts/enumerated.sol\":278:348  function setSmall() public {... */\n    tag_6:\n      tag_17\n      tag_18\n      jump\t// in\n    tag_17:\n      stop\n        /* \"Solidity/Lec2/contracts/enumerated.sol\":440:531  function getDefault() public view returns(uint){... */\n    tag_8:\n        /* \"Solidity/Lec2/contracts/enumerated.sol\":482:486  uint */\n      0x00\n        /* \"Solidity/Lec2/contracts/enumerated.sol\":178:195  FreshJuice.medium */\n      0x01\n        /* \"Solidity/Lec2/contracts/enumerated.sol\":504:524  uint(defaultChoice ) */\n      0x02\n      dup2\n      gt\n      iszero\n      tag_20\n      jumpi\n      tag_21\n      tag_22\n      jump\t// in\n    tag_21:\n    tag_20:\n        /* \"Solidity/Lec2/contracts/enumerated.sol\":497:524  return uint(defaultChoice ) */\n      swap1\n      pop\n        /* \"Solidity/Lec2/contracts/enumerated.sol\":440:531  function getDefault() public view returns(uint){... */\n      swap1\n      jump\t// out\n        /* \"Solidity/Lec2/contracts/enumerated.sol\":353:435  function getChoice() public view returns(FreshJuice){... */\n    tag_12:\n        /* \"Solidity/Lec2/contracts/enumerated.sol\":394:404  FreshJuice */\n      0x00\n        /* \"Solidity/Lec2/contracts/enumerated.sol\":422:428  choice */\n      dup1\n      0x00\n      swap1\n      sload\n      swap1\n      0x0100\n      exp\n      swap1\n      div\n      0xff\n      and\n        /* \"Solidity/Lec2/contracts/enumerated.sol\":415:428  return choice */\n      swap1\n      pop\n        /* \"Solidity/Lec2/contracts/enumerated.sol\":353:435  function getChoice() public view returns(FreshJuice){... */\n      swap1\n      jump\t// out\n        /* \"Solidity/Lec2/contracts/enumerated.sol\":202:272  function setLarge() public {... */\n    tag_16:\n        /* \"Solidity/Lec2/contracts/enumerated.sol\":248:264  FreshJuice.large */\n      0x02\n        /* \"Solidity/Lec2/contracts/enumerated.sol\":239:245  choice */\n      0x00\n      dup1\n        /* \"Solidity/Lec2/contracts/enumerated.sol\":239:264  choice = FreshJuice.large */\n      0x0100\n      exp\n      dup2\n      sload\n      dup2\n      0xff\n      mul\n      not\n      and\n      swap1\n      dup4\n      0x02\n      dup2\n      gt\n      iszero\n      tag_25\n      jumpi\n      tag_26\n      tag_22\n      jump\t// in\n    tag_26:\n    tag_25:\n      mul\n      or\n      swap1\n      sstore\n      pop\n        /* \"Solidity/Lec2/contracts/enumerated.sol\":202:272  function setLarge() public {... */\n      jump\t// out\n        /* \"Solidity/Lec2/contracts/enumerated.sol\":278:348  function setSmall() public {... */\n    tag_18:\n        /* \"Solidity/Lec2/contracts/enumerated.sol\":324:340  FreshJuice.small */\n      0x00\n        /* \"Solidity/Lec2/contracts/enumerated.sol\":315:321  choice */\n      dup1\n      0x00\n        /* \"Solidity/Lec2/contracts/enumerated.sol\":315:340  choice = FreshJuice.small */\n      0x0100\n      exp\n      dup2\n      sload\n      dup2\n      0xff\n      mul\n      not\n      and\n      swap1\n      dup4\n      0x02\n      dup2\n      gt\n      iszero\n      tag_28\n      jumpi\n      tag_29\n      tag_22\n      jump\t// in\n    tag_29:\n    tag_28:\n      mul\n      or\n      swap1\n      sstore\n      pop\n        /* \"Solidity/Lec2/contracts/enumerated.sol\":278:348  function setSmall() public {... */\n      jump\t// out\n        /* \"#utility.yul\":7:158   */\n    tag_31:\n        /* \"#utility.yul\":104:151   */\n      tag_33\n        /* \"#utility.yul\":145:150   */\n      dup2\n        /* \"#utility.yul\":104:151   */\n      tag_34\n      jump\t// in\n    tag_33:\n        /* \"#utility.yul\":99:102   */\n      dup3\n        /* \"#utility.yul\":92:152   */\n      mstore\n        /* \"#utility.yul\":82:158   */\n      pop\n      pop\n      jump\t// out\n        /* \"#utility.yul\":164:282   */\n    tag_35:\n        /* \"#utility.yul\":251:275   */\n      tag_37\n        /* \"#utility.yul\":269:274   */\n      dup2\n        /* \"#utility.yul\":251:275   */\n      tag_38\n      jump\t// in\n    tag_37:\n        /* \"#utility.yul\":246:249   */\n      dup3\n        /* \"#utility.yul\":239:276   */\n      mstore\n        /* \"#utility.yul\":229:282   */\n      pop\n      pop\n      jump\t// out\n        /* \"#utility.yul\":288:530   */\n    tag_14:\n        /* \"#utility.yul\":391:395   */\n      0x00\n        /* \"#utility.yul\":429:431   */\n      0x20\n        /* \"#utility.yul\":418:427   */\n      dup3\n        /* \"#utility.yul\":414:432   */\n      add\n        /* \"#utility.yul\":406:432   */\n      swap1\n      pop\n        /* \"#utility.yul\":442:523   */\n      tag_40\n        /* \"#utility.yul\":520:521   */\n      0x00\n        /* \"#utility.yul\":509:518   */\n      dup4\n        /* \"#utility.yul\":505:522   */\n      add\n        /* \"#utility.yul\":496:502   */\n      dup5\n        /* \"#utility.yul\":442:523   */\n      tag_31\n      jump\t// in\n    tag_40:\n        /* \"#utility.yul\":396:530   */\n      swap3\n      swap2\n      pop\n      pop\n      jump\t// out\n        /* \"#utility.yul\":536:758   */\n    tag_10:\n        /* \"#utility.yul\":629:633   */\n      0x00\n        /* \"#utility.yul\":667:669   */\n      0x20\n        /* \"#utility.yul\":656:665   */\n      dup3\n        /* \"#utility.yul\":652:670   */\n      add\n        /* \"#utility.yul\":644:670   */\n      swap1\n      pop\n        /* \"#utility.yul\":680:751   */\n      tag_42\n        /* \"#utility.yul\":748:749   */\n      0x00\n        /* \"#utility.yul\":737:746   */\n      dup4\n        /* \"#utility.yul\":733:750   */\n      add\n        /* \"#utility.yul\":724:730   */\n      dup5\n        /* \"#utility.yul\":680:751   */\n      tag_35\n      jump\t// in\n    tag_42:\n        /* \"#utility.yul\":634:758   */\n      swap3\n      swap2\n      pop\n      pop\n      jump\t// out\n        /* \"#utility.yul\":764:899   */\n    tag_43:\n        /* \"#utility.yul\":813:820   */\n      0x00\n        /* \"#utility.yul\":842:847   */\n      dup2\n        /* \"#utility.yul\":831:847   */\n      swap1\n      pop\n        /* \"#utility.yul\":848:893   */\n      tag_45\n        /* \"#utility.yul\":887:892   */\n      dup3\n        /* \"#utility.yul\":848:893   */\n      tag_46\n      jump\t// in\n    tag_45:\n        /* \"#utility.yul\":821:899   */\n      swap2\n      swap1\n      pop\n      jump\t// out\n        /* \"#utility.yul\":905:982   */\n    tag_38:\n        /* \"#utility.yul\":942:949   */\n      0x00\n        /* \"#utility.yul\":971:976   */\n      dup2\n        /* \"#utility.yul\":960:976   */\n      swap1\n      pop\n        /* \"#utility.yul\":950:982   */\n      swap2\n      swap1\n      pop\n      jump\t// out\n        /* \"#utility.yul\":988:1123   */\n    tag_34:\n        /* \"#utility.yul\":1048:1057   */\n      0x00\n        /* \"#utility.yul\":1081:1117   */\n      tag_49\n        /* \"#utility.yul\":1111:1116   */\n      dup3\n        /* \"#utility.yul\":1081:1117   */\n      tag_43\n      jump\t// in\n    tag_49:\n        /* \"#utility.yul\":1068:1117   */\n      swap1\n      pop\n        /* \"#utility.yul\":1058:1123   */\n      swap2\n      swap1\n      pop\n      jump\t// out\n        /* \"#utility.yul\":1129:1309   */\n    tag_22:\n        /* \"#utility.yul\":1177:1254   */\n      0x4e487b7100000000000000000000000000000000000000000000000000000000\n        /* \"#utility.yul\":1174:1175   */\n      0x00\n        /* \"#utility.yul\":1167:1255   */\n      mstore\n        /* \"#utility.yul\":1274:1278   */\n      0x21\n        /* \"#utility.yul\":1271:1272   */\n      0x04\n        /* \"#utility.yul\":1264:1279   */\n      mstore\n        /* \"#utility.yul\":1298:1302   */\n      0x24\n        /* \"#utility.yul\":1295:1296   */\n      0x00\n        /* \"#utility.yul\":1288:1303   */\n      revert\n        /* \"#utility.yul\":1315:1432   */\n    tag_46:\n        /* \"#utility.yul\":1400:1401   */\n      0x03\n        /* \"#utility.yul\":1393:1398   */\n      dup2\n        /* \"#utility.yul\":1390:1402   */\n      lt\n        /* \"#utility.yul\":1380:1382   */\n      tag_52\n      jumpi\n        /* \"#utility.yul\":1406:1424   */\n      tag_53\n      tag_22\n      jump\t// in\n    tag_53:\n        /* \"#utility.yul\":1380:1382   */\n    tag_52:\n        /* \"#utility.yul\":1370:1432   */\n      pop\n      jump\t// out\n\n    auxdata: 0xa2646970667358221220611e021e74836711de45432f0b9d1c07d29e2c4e4f7cc483a5970079f84fd50e64736f6c63430008060033\n}\n",
				"bytecode": {
					"linkReferences": {},
					"object": "608060405234801561001057600080fd5b50610226806100206000396000f3fe608060405234801561001057600080fd5b506004361061004c5760003560e01c8063466858b21461005157806367cb61b61461006f578063694ebe4f1461008d57806391ff2c8614610097575b600080fd5b6100596100a1565b6040516100669190610163565b60405180910390f35b6100776100bc565b6040516100849190610148565b60405180910390f35b6100956100d2565b005b61009f6100fe565b005b6000600160028111156100b7576100b66101ad565b5b905090565b60008060009054906101000a900460ff16905090565b60026000806101000a81548160ff021916908360028111156100f7576100f66101ad565b5b0217905550565b60008060006101000a81548160ff02191690836002811115610123576101226101ad565b5b0217905550565b6101338161019b565b82525050565b61014281610191565b82525050565b600060208201905061015d600083018461012a565b92915050565b60006020820190506101786000830184610139565b92915050565b600081905061018c826101dc565b919050565b6000819050919050565b60006101a68261017e565b9050919050565b7f4e487b7100000000000000000000000000000000000000000000000000000000600052602160045260246000fd5b600381106101ed576101ec6101ad565b5b5056fea2646970667358221220611e021e74836711de45432f0b9d1c07d29e2c4e4f7cc483a5970079f84fd50e64736f6c63430008060033",
					"opcodes": "PUSH1 0x80 PUSH1 0x40 MSTORE CALLVALUE DUP1 ISZERO PUSH2 0x10 JUMPI PUSH1 0x0 DUP1 REVERT JUMPDEST POP PUSH2 0x226 DUP1 PUSH2 0x20 PUSH1 0x0 CODECOPY PUSH1 0x0 RETURN INVALID PUSH1 0x80 PUSH1 0x40 MSTORE CALLVALUE DUP1 ISZERO PUSH2 0x10 JUMPI PUSH1 0x0 DUP1 REVERT JUMPDEST POP PUSH1 0x4 CALLDATASIZE LT PUSH2 0x4C JUMPI PUSH1 0x0 CALLDATALOAD PUSH1 0xE0 SHR DUP1 PUSH4 0x466858B2 EQ PUSH2 0x51 JUMPI DUP1 PUSH4 0x67CB61B6 EQ PUSH2 0x6F JUMPI DUP1 PUSH4 0x694EBE4F EQ PUSH2 0x8D JUMPI DUP1 PUSH4 0x91FF2C86 EQ PUSH2 0x97 JUMPI JUMPDEST PUSH1 0x0 DUP1 REVERT JUMPDEST PUSH2 0x59 PUSH2 0xA1 JUMP JUMPDEST PUSH1 0x40 MLOAD PUSH2 0x66 SWAP2 SWAP1 PUSH2 0x163 JUMP JUMPDEST PUSH1 0x40 MLOAD DUP1 SWAP2 SUB SWAP1 RETURN JUMPDEST PUSH2 0x77 PUSH2 0xBC JUMP JUMPDEST PUSH1 0x40 MLOAD PUSH2 0x84 SWAP2 SWAP1 PUSH2 0x148 JUMP JUMPDEST PUSH1 0x40 MLOAD DUP1 SWAP2 SUB SWAP1 RETURN JUMPDEST PUSH2 0x95 PUSH2 0xD2 JUMP JUMPDEST STOP JUMPDEST PUSH2 0x9F PUSH2 0xFE JUMP JUMPDEST STOP JUMPDEST PUSH1 0x0 PUSH1 0x1 PUSH1 0x2 DUP2 GT ISZERO PUSH2 0xB7 JUMPI PUSH2 0xB6 PUSH2 0x1AD JUMP JUMPDEST JUMPDEST SWAP1 POP SWAP1 JUMP JUMPDEST PUSH1 0x0 DUP1 PUSH1 0x0 SWAP1 SLOAD SWAP1 PUSH2 0x100 EXP SWAP1 DIV PUSH1 0xFF AND SWAP1 POP SWAP1 JUMP JUMPDEST PUSH1 0x2 PUSH1 0x0 DUP1 PUSH2 0x100 EXP DUP2 SLOAD DUP2 PUSH1 0xFF MUL NOT AND SWAP1 DUP4 PUSH1 0x2 DUP2 GT ISZERO PUSH2 0xF7 JUMPI PUSH2 0xF6 PUSH2 0x1AD JUMP JUMPDEST JUMPDEST MUL OR SWAP1 SSTORE POP JUMP JUMPDEST PUSH1 0x0 DUP1 PUSH1 0x0 PUSH2 0x100 EXP DUP2 SLOAD DUP2 PUSH1 0xFF MUL NOT AND SWAP1 DUP4 PUSH1 0x2 DUP2 GT ISZERO PUSH2 0x123 JUMPI PUSH2 0x122 PUSH2 0x1AD JUMP JUMPDEST JUMPDEST MUL OR SWAP1 SSTORE POP JUMP JUMPDEST PUSH2 0x133 DUP2 PUSH2 0x19B JUMP JUMPDEST DUP3 MSTORE POP POP JUMP JUMPDEST PUSH2 0x142 DUP2 PUSH2 0x191 JUMP JUMPDEST DUP3 MSTORE POP POP JUMP JUMPDEST PUSH1 0x0 PUSH1 0x20 DUP3 ADD SWAP1 POP PUSH2 0x15D PUSH1 0x0 DUP4 ADD DUP5 PUSH2 0x12A JUMP JUMPDEST SWAP3 SWAP2 POP POP JUMP JUMPDEST PUSH1 0x0 PUSH1 0x20 DUP3 ADD SWAP1 POP PUSH2 0x178 PUSH1 0x0 DUP4 ADD DUP5 PUSH2 0x139 JUMP JUMPDEST SWAP3 SWAP2 POP POP JUMP JUMPDEST PUSH1 0x0 DUP2 SWAP1 POP PUSH2 0x18C DUP3 PUSH2 0x1DC JUMP JUMPDEST SWAP2 SWAP1 POP JUMP JUMPDEST PUSH1 0x0 DUP2 SWAP1 POP SWAP2 SWAP1 POP JUMP JUMPDEST PUSH1 0x0 PUSH2 0x1A6 DUP3 PUSH2 0x17E JUMP JUMPDEST SWAP1 POP SWAP2 SWAP1 POP JUMP JUMPDEST PUSH32 0x4E487B7100000000000000000000000000000000000000000000000000000000 PUSH1 0x0 MSTORE PUSH1 0x21 PUSH1 0x4 MSTORE PUSH1 0x24 PUSH1 0x0 REVERT JUMPDEST PUSH1 0x3 DUP2 LT PUSH2 0x1ED JUMPI PUSH2 0x1EC PUSH2 0x1AD JUMP JUMPDEST JUMPDEST POP JUMP INVALID LOG2 PUSH5 0x6970667358 0x22 SLT KECCAK256 PUSH2 0x1E02 0x1E PUSH21 0x836711DE45432F0B9D1C07D29E2C4E4F7CC483A597 STOP PUSH26 0xF84FD50E64736F6C634300080600330000000000000000000000 "
				},
				"gasEstimates": {
					"creation": {
						"codeDepositCost": "110000",
						"executionCost": "159",
						"totalCost": "110159"
					},
					"external": {
						"getChoice()": "2568",
						"getDefault()": "341",
						"setLarge()": "24453",
						"setSmall()": "24475"
					}
				},
				"methodIdentifiers": {
					"getChoice()": "67cb61b6",
					"getDefault()": "466858b2",
					"setLarge()": "694ebe4f",
					"setSmall()": "91ff2c86"
				}
			},
			"storageLayout": {
				"storage": [
					{
						"astId": 8,
						"contract": "Solidity/Lec2/contracts/enumerated.sol:enum1",
						"label": "choice",
						"offset": 0,
						"slot": "0",
						"type": "t_enum(FreshJuice)5"
					}
				],
				"types": {
					"t_enum(FreshJuice)5": {
						"encoding": "inplace",
						"label": "enum enum1.FreshJuice",
						"numberOfBytes": "1"
					}
				}
			},
			"userdoc": {
				"kind": "user",
				"methods": {},
				"version": 1
			}
		}
	}
}